{
  "contractName": "HealthId",
  "abi": [
    {
      "constant": true,
      "inputs": [
        {
          "name": "",
          "type": "address"
        }
      ],
      "name": "accounts",
      "outputs": [
        {
          "name": "owner",
          "type": "address"
        },
        {
          "name": "name",
          "type": "string"
        },
        {
          "name": "bloodType",
          "type": "uint8"
        },
        {
          "name": "organDonor",
          "type": "bool"
        },
        {
          "name": "birthYear",
          "type": "uint256"
        },
        {
          "name": "birthMonth",
          "type": "uint256"
        },
        {
          "name": "birthDay",
          "type": "uint256"
        }
      ],
      "payable": false,
      "stateMutability": "view",
      "type": "function",
      "signature": "0x5e5c06e2"
    },
    {
      "inputs": [],
      "payable": false,
      "stateMutability": "nonpayable",
      "type": "constructor",
      "signature": "constructor"
    },
    {
      "anonymous": false,
      "inputs": [
        {
          "indexed": false,
          "name": "owner",
          "type": "address"
        },
        {
          "indexed": false,
          "name": "name",
          "type": "string"
        }
      ],
      "name": "AccountCreated",
      "type": "event",
      "signature": "0xb3202828e8e55b43ee1a77a1ee6ffbe19f0205767feb21e28cadd26390ff0501"
    },
    {
      "anonymous": false,
      "inputs": [
        {
          "indexed": false,
          "name": "owner",
          "type": "address"
        },
        {
          "indexed": false,
          "name": "name",
          "type": "string"
        }
      ],
      "name": "AccountUpdated",
      "type": "event",
      "signature": "0x62a817e4c50d7664554e151d62b0e4ec98b6935dc520eaa43b4fc57fb7b8e74e"
    },
    {
      "constant": false,
      "inputs": [
        {
          "name": "_name",
          "type": "string"
        },
        {
          "name": "_bloodType",
          "type": "uint8"
        },
        {
          "name": "_organDonor",
          "type": "bool"
        },
        {
          "name": "_birthYear",
          "type": "uint256"
        },
        {
          "name": "_birthMonth",
          "type": "uint256"
        },
        {
          "name": "_birthDay",
          "type": "uint256"
        }
      ],
      "name": "newAccount",
      "outputs": [],
      "payable": false,
      "stateMutability": "nonpayable",
      "type": "function",
      "signature": "0x609071df"
    },
    {
      "constant": false,
      "inputs": [
        {
          "name": "_name",
          "type": "string"
        },
        {
          "name": "_bloodType",
          "type": "uint8"
        },
        {
          "name": "_organDonor",
          "type": "bool"
        },
        {
          "name": "_birthYear",
          "type": "uint256"
        },
        {
          "name": "_birthMonth",
          "type": "uint256"
        },
        {
          "name": "_birthDay",
          "type": "uint256"
        }
      ],
      "name": "updateAccount",
      "outputs": [],
      "payable": false,
      "stateMutability": "nonpayable",
      "type": "function",
      "signature": "0x49e9f744"
    },
    {
      "constant": false,
      "inputs": [],
      "name": "toggleContractActive",
      "outputs": [],
      "payable": false,
      "stateMutability": "nonpayable",
      "type": "function",
      "signature": "0x1385d24c"
    },
    {
      "constant": true,
      "inputs": [
        {
          "name": "x",
          "type": "uint256"
        },
        {
          "name": "y",
          "type": "uint256"
        }
      ],
      "name": "runLibraryDemo",
      "outputs": [
        {
          "name": "difference",
          "type": "uint256"
        }
      ],
      "payable": false,
      "stateMutability": "pure",
      "type": "function",
      "signature": "0xb4b08aa3"
    }
  ],
  "bytecode": "0x608060405260008060006101000a81548160ff02191690831515021790555034801561002a57600080fd5b5033600060016101000a81548173ffffffffffffffffffffffffffffffffffffffff021916908373ffffffffffffffffffffffffffffffffffffffff160217905550610c828061007b6000396000f3fe60806040526004361061006d576000357c0100000000000000000000000000000000000000000000000000000000900463ffffffff1680631385d24c1461007257806349e9f744146100895780635e5c06e214610188578063609071df146102ba578063b4b08aa3146103b9575b600080fd5b34801561007e57600080fd5b50610087610412565b005b34801561009557600080fd5b50610186600480360360c08110156100ac57600080fd5b81019080803590602001906401000000008111156100c957600080fd5b8201836020820111156100db57600080fd5b803590602001918460018302840111640100000000831117156100fd57600080fd5b91908080601f016020809104026020016040519081016040528093929190818152602001838380828437600081840152601f19601f820116905080830192505050505050509192919290803560ff169060200190929190803515159060200190929190803590602001909291908035906020019092919080359060200190929190505050610498565b005b34801561019457600080fd5b506101d7600480360360208110156101ab57600080fd5b81019080803573ffffffffffffffffffffffffffffffffffffffff1690602001909291905050506106ef565b604051808873ffffffffffffffffffffffffffffffffffffffff1673ffffffffffffffffffffffffffffffffffffffff1681526020018060200187600781111561021d57fe5b60ff16815260200186151515158152602001858152602001848152602001838152602001828103825288818151815260200191508051906020019080838360005b8381101561027957808201518184015260208101905061025e565b50505050905090810190601f1680156102a65780820380516001836020036101000a031916815260200191505b509850505050505050505060405180910390f35b3480156102c657600080fd5b506103b7600480360360c08110156102dd57600080fd5b81019080803590602001906401000000008111156102fa57600080fd5b82018360208201111561030c57600080fd5b8035906020019184600183028401116401000000008311171561032e57600080fd5b91908080601f016020809104026020016040519081016040528093929190818152602001838380828437600081840152601f19601f820116905080830192505050505050509192919290803560ff169060200190929190803515159060200190929190803590602001909291908035906020019092919080359060200190929190505050610803565b005b3480156103c557600080fd5b506103fc600480360360408110156103dc57600080fd5b810190808035906020019092919080359060200190929190505050610af7565b6040518082815260200191505060405180910390f35b600060019054906101000a900473ffffffffffffffffffffffffffffffffffffffff1673ffffffffffffffffffffffffffffffffffffffff163373ffffffffffffffffffffffffffffffffffffffff1614151561046e57600080fd5b6000809054906101000a900460ff16156000806101000a81548160ff021916908315150217905550565b6000809054906101000a900460ff161515156104b357600080fd5b7f62a817e4c50d7664554e151d62b0e4ec98b6935dc520eaa43b4fc57fb7b8e74e3387604051808373ffffffffffffffffffffffffffffffffffffffff1673ffffffffffffffffffffffffffffffffffffffff16815260200180602001828103825283818151815260200191508051906020019080838360005b8381101561054857808201518184015260208101905061052d565b50505050905090810190601f1680156105755780820380516001836020036101000a031916815260200191505b50935050505060405180910390a160e0604051908101604052803373ffffffffffffffffffffffffffffffffffffffff1681526020018781526020018660078111156105bd57fe5b8152602001851515815260200184815260200183815260200182815250600160003373ffffffffffffffffffffffffffffffffffffffff1673ffffffffffffffffffffffffffffffffffffffff16815260200190815260200160002060008201518160000160006101000a81548173ffffffffffffffffffffffffffffffffffffffff021916908373ffffffffffffffffffffffffffffffffffffffff160217905550602082015181600101908051906020019061067c929190610bb1565b5060408201518160020160006101000a81548160ff021916908360078111156106a157fe5b021790555060608201518160020160016101000a81548160ff0219169083151502179055506080820151816003015560a0820151816004015560c08201518160050155905050505050505050565b60016020528060005260406000206000915090508060000160009054906101000a900473ffffffffffffffffffffffffffffffffffffffff1690806001018054600181600116156101000203166002900480601f0160208091040260200160405190810160405280929190818152602001828054600181600116156101000203166002900480156107c15780601f10610796576101008083540402835291602001916107c1565b820191906000526020600020905b8154815290600101906020018083116107a457829003601f168201915b5050505050908060020160009054906101000a900460ff16908060020160019054906101000a900460ff16908060030154908060040154908060050154905087565b600073ffffffffffffffffffffffffffffffffffffffff16600160003373ffffffffffffffffffffffffffffffffffffffff1673ffffffffffffffffffffffffffffffffffffffff16815260200190815260200160002060000160009054906101000a900473ffffffffffffffffffffffffffffffffffffffff1673ffffffffffffffffffffffffffffffffffffffff161415156108a057600080fd5b6000809054906101000a900460ff161515156108bb57600080fd5b7fb3202828e8e55b43ee1a77a1ee6ffbe19f0205767feb21e28cadd26390ff05013387604051808373ffffffffffffffffffffffffffffffffffffffff1673ffffffffffffffffffffffffffffffffffffffff16815260200180602001828103825283818151815260200191508051906020019080838360005b83811015610950578082015181840152602081019050610935565b50505050905090810190601f16801561097d5780820380516001836020036101000a031916815260200191505b50935050505060405180910390a160e0604051908101604052803373ffffffffffffffffffffffffffffffffffffffff1681526020018781526020018660078111156109c557fe5b8152602001851515815260200184815260200183815260200182815250600160003373ffffffffffffffffffffffffffffffffffffffff1673ffffffffffffffffffffffffffffffffffffffff16815260200190815260200160002060008201518160000160006101000a81548173ffffffffffffffffffffffffffffffffffffffff021916908373ffffffffffffffffffffffffffffffffffffffff1602179055506020820151816001019080519060200190610a84929190610bb1565b5060408201518160020160006101000a81548160ff02191690836007811115610aa957fe5b021790555060608201518160020160016101000a81548160ff0219169083151502179055506080820151816003015560a0820151816004015560c08201518160050155905050505050505050565b60008273__LibraryDemo___________________________63f4f3bdc19091846040518363ffffffff167c0100000000000000000000000000000000000000000000000000000000028152600401808381526020018281526020019250505060206040518083038186803b158015610b6e57600080fd5b505af4158015610b82573d6000803e3d6000fd5b505050506040513d6020811015610b9857600080fd5b8101908080519060200190929190505050905092915050565b828054600181600116156101000203166002900490600052602060002090601f016020900481019282601f10610bf257805160ff1916838001178555610c20565b82800160010185558215610c20579182015b82811115610c1f578251825591602001919060010190610c04565b5b509050610c2d9190610c31565b5090565b610c5391905b80821115610c4f576000816000905550600101610c37565b5090565b9056fea165627a7a72305820a6ecf99a8623228cf0e9d1e26864eb1c3f0dc3bd7d073d8b31edfd85136057f10029",
  "source": "pragma solidity ^0.5.0;\n\nimport \"./LibraryDemo.sol\";\n\ncontract HealthId {\n\n    using LibraryDemo for uint;\n\n    bool private stopped = false;\n    address private admin;\n\n    mapping(address => Account) public accounts;\n\n    struct Account {\n        address owner;\n        string name;\n        BloodType bloodType;\n        bool organDonor;\n        uint birthYear;\n        uint birthMonth;\n        uint birthDay;\n    }\n\n    enum BloodType {\n        Aplus, Oplus, Bplus, ABplus, Aneg, Oneg, Bneg, ABneg\n    }\n\n    modifier verifyAccountDoesNotExist(){\n        require(accounts[msg.sender].owner == address(0));\n        _;\n    }\n\n    modifier isAdmin() {\n        require(msg.sender == admin);\n        _;\n    }\n\n    modifier stopInEmergency {\n        require(!stopped);\n        _;\n    }\n\n    event AccountCreated(address owner, string name);\n    event AccountUpdated(address owner, string name);\n\n    constructor() public {\n        admin = msg.sender;\n    }\n\n    function newAccount(string memory _name, BloodType _bloodType, bool _organDonor, uint _birthYear, uint _birthMonth, uint _birthDay) public verifyAccountDoesNotExist() stopInEmergency() {\n        emit AccountCreated(msg.sender, _name);\n        accounts[msg.sender] = Account({owner : msg.sender, name : _name, bloodType : _bloodType, organDonor : _organDonor, birthYear : _birthYear, birthMonth : _birthMonth, birthDay : _birthDay});\n    }\n\n    function updateAccount(string memory _name, BloodType _bloodType, bool _organDonor, uint _birthYear, uint _birthMonth, uint _birthDay) public stopInEmergency() {\n        emit AccountUpdated(msg.sender, _name);\n        accounts[msg.sender] = Account({owner : msg.sender, name : _name, bloodType : _bloodType, organDonor : _organDonor, birthYear : _birthYear, birthMonth : _birthMonth, birthDay : _birthDay});\n    }\n\n    function toggleContractActive() isAdmin public {\n        stopped = !stopped;\n    }\n\n    function runLibraryDemo(uint x, uint y) public pure returns (uint difference) {\n        return x.minus(y);\n    }\n}\n",
  "sourcePath": "/Users/mike/work/mine/healthid/contracts/HealthId.sol",
  "compiler": {
    "name": "solc",
    "version": "0.5.0+commit.1d4f565a.Emscripten.clang"
  },
  "schemaVersion": "3.0.1",
  "updatedAt": "2019-01-25T07:38:17.766Z",
  "devdoc": {
    "methods": {}
  },
  "userdoc": {
    "methods": {}
  }
}