{
  "contractName": "HealthId",
  "abi": [
    {
      "constant": true,
      "inputs": [
        {
          "name": "",
          "type": "address"
        }
      ],
      "name": "accounts",
      "outputs": [
        {
          "name": "owner",
          "type": "address"
        },
        {
          "name": "name",
          "type": "string"
        },
        {
          "name": "bloodType",
          "type": "uint8"
        },
        {
          "name": "organDonor",
          "type": "bool"
        },
        {
          "name": "birthYear",
          "type": "uint256"
        },
        {
          "name": "birthMonth",
          "type": "uint256"
        },
        {
          "name": "birthDay",
          "type": "uint256"
        }
      ],
      "payable": false,
      "stateMutability": "view",
      "type": "function",
      "signature": "0x5e5c06e2"
    },
    {
      "anonymous": false,
      "inputs": [
        {
          "indexed": false,
          "name": "owner",
          "type": "address"
        },
        {
          "indexed": false,
          "name": "name",
          "type": "string"
        }
      ],
      "name": "AccountCreated",
      "type": "event",
      "signature": "0xb3202828e8e55b43ee1a77a1ee6ffbe19f0205767feb21e28cadd26390ff0501"
    },
    {
      "anonymous": false,
      "inputs": [
        {
          "indexed": false,
          "name": "owner",
          "type": "address"
        },
        {
          "indexed": false,
          "name": "name",
          "type": "string"
        }
      ],
      "name": "AccountUpdated",
      "type": "event",
      "signature": "0x62a817e4c50d7664554e151d62b0e4ec98b6935dc520eaa43b4fc57fb7b8e74e"
    },
    {
      "constant": false,
      "inputs": [
        {
          "name": "_name",
          "type": "string"
        },
        {
          "name": "_bloodType",
          "type": "uint8"
        },
        {
          "name": "_organDonor",
          "type": "bool"
        },
        {
          "name": "_birthYear",
          "type": "uint256"
        },
        {
          "name": "_birthMonth",
          "type": "uint256"
        },
        {
          "name": "_birthDay",
          "type": "uint256"
        }
      ],
      "name": "newAccount",
      "outputs": [],
      "payable": false,
      "stateMutability": "nonpayable",
      "type": "function",
      "signature": "0x609071df"
    },
    {
      "constant": false,
      "inputs": [
        {
          "name": "_name",
          "type": "string"
        },
        {
          "name": "_bloodType",
          "type": "uint8"
        },
        {
          "name": "_organDonor",
          "type": "bool"
        },
        {
          "name": "_birthYear",
          "type": "uint256"
        },
        {
          "name": "_birthMonth",
          "type": "uint256"
        },
        {
          "name": "_birthDay",
          "type": "uint256"
        }
      ],
      "name": "updateAccount",
      "outputs": [],
      "payable": false,
      "stateMutability": "nonpayable",
      "type": "function",
      "signature": "0x49e9f744"
    }
  ],
  "bytecode": "0x608060405234801561001057600080fd5b50610a83806100206000396000f3fe608060405260043610610057576000357c0100000000000000000000000000000000000000000000000000000000900463ffffffff16806349e9f7441461005c5780635e5c06e21461015b578063609071df1461028d575b600080fd5b34801561006857600080fd5b50610159600480360360c081101561007f57600080fd5b810190808035906020019064010000000081111561009c57600080fd5b8201836020820111156100ae57600080fd5b803590602001918460018302840111640100000000831117156100d057600080fd5b91908080601f016020809104026020016040519081016040528093929190818152602001838380828437600081840152601f19601f820116905080830192505050505050509192919290803560ff16906020019092919080351515906020019092919080359060200190929190803590602001909291908035906020019092919050505061038c565b005b34801561016757600080fd5b506101aa6004803603602081101561017e57600080fd5b81019080803573ffffffffffffffffffffffffffffffffffffffff1690602001909291905050506105c7565b604051808873ffffffffffffffffffffffffffffffffffffffff1673ffffffffffffffffffffffffffffffffffffffff168152602001806020018760078111156101f057fe5b60ff16815260200186151515158152602001858152602001848152602001838152602001828103825288818151815260200191508051906020019080838360005b8381101561024c578082015181840152602081019050610231565b50505050905090810190601f1680156102795780820380516001836020036101000a031916815260200191505b509850505050505050505060405180910390f35b34801561029957600080fd5b5061038a600480360360c08110156102b057600080fd5b81019080803590602001906401000000008111156102cd57600080fd5b8201836020820111156102df57600080fd5b8035906020019184600183028401116401000000008311171561030157600080fd5b91908080601f016020809104026020016040519081016040528093929190818152602001838380828437600081840152601f19601f820116905080830192505050505050509192919290803560ff1690602001909291908035151590602001909291908035906020019092919080359060200190929190803590602001909291905050506106db565b005b7f62a817e4c50d7664554e151d62b0e4ec98b6935dc520eaa43b4fc57fb7b8e74e3387604051808373ffffffffffffffffffffffffffffffffffffffff1673ffffffffffffffffffffffffffffffffffffffff16815260200180602001828103825283818151815260200191508051906020019080838360005b83811015610421578082015181840152602081019050610406565b50505050905090810190601f16801561044e5780820380516001836020036101000a031916815260200191505b50935050505060405180910390a160e0604051908101604052803373ffffffffffffffffffffffffffffffffffffffff16815260200187815260200186600781111561049657fe5b81526020018515158152602001848152602001838152602001828152506000803373ffffffffffffffffffffffffffffffffffffffff1673ffffffffffffffffffffffffffffffffffffffff16815260200190815260200160002060008201518160000160006101000a81548173ffffffffffffffffffffffffffffffffffffffff021916908373ffffffffffffffffffffffffffffffffffffffff16021790555060208201518160010190805190602001906105549291906109b2565b5060408201518160020160006101000a81548160ff0219169083600781111561057957fe5b021790555060608201518160020160016101000a81548160ff0219169083151502179055506080820151816003015560a0820151816004015560c08201518160050155905050505050505050565b60006020528060005260406000206000915090508060000160009054906101000a900473ffffffffffffffffffffffffffffffffffffffff1690806001018054600181600116156101000203166002900480601f0160208091040260200160405190810160405280929190818152602001828054600181600116156101000203166002900480156106995780601f1061066e57610100808354040283529160200191610699565b820191906000526020600020905b81548152906001019060200180831161067c57829003601f168201915b5050505050908060020160009054906101000a900460ff16908060020160019054906101000a900460ff16908060030154908060040154908060050154905087565b600073ffffffffffffffffffffffffffffffffffffffff166000803373ffffffffffffffffffffffffffffffffffffffff1673ffffffffffffffffffffffffffffffffffffffff16815260200190815260200160002060000160009054906101000a900473ffffffffffffffffffffffffffffffffffffffff1673ffffffffffffffffffffffffffffffffffffffff1614151561077757600080fd5b7fb3202828e8e55b43ee1a77a1ee6ffbe19f0205767feb21e28cadd26390ff05013387604051808373ffffffffffffffffffffffffffffffffffffffff1673ffffffffffffffffffffffffffffffffffffffff16815260200180602001828103825283818151815260200191508051906020019080838360005b8381101561080c5780820151818401526020810190506107f1565b50505050905090810190601f1680156108395780820380516001836020036101000a031916815260200191505b50935050505060405180910390a160e0604051908101604052803373ffffffffffffffffffffffffffffffffffffffff16815260200187815260200186600781111561088157fe5b81526020018515158152602001848152602001838152602001828152506000803373ffffffffffffffffffffffffffffffffffffffff1673ffffffffffffffffffffffffffffffffffffffff16815260200190815260200160002060008201518160000160006101000a81548173ffffffffffffffffffffffffffffffffffffffff021916908373ffffffffffffffffffffffffffffffffffffffff160217905550602082015181600101908051906020019061093f9291906109b2565b5060408201518160020160006101000a81548160ff0219169083600781111561096457fe5b021790555060608201518160020160016101000a81548160ff0219169083151502179055506080820151816003015560a0820151816004015560c08201518160050155905050505050505050565b828054600181600116156101000203166002900490600052602060002090601f016020900481019282601f106109f357805160ff1916838001178555610a21565b82800160010185558215610a21579182015b82811115610a20578251825591602001919060010190610a05565b5b509050610a2e9190610a32565b5090565b610a5491905b80821115610a50576000816000905550600101610a38565b5090565b9056fea165627a7a723058201070bed18cdfaf259b302f9313cb1a3d67ae28ca3a3dea872ce6890b26d7288d0029",
  "source": "pragma solidity ^0.5.0;\n\ncontract HealthId {\n\n    mapping(address => Account) public accounts;\n\n    struct Account {\n        address owner;\n        string name;\n        BloodType bloodType;\n        bool organDonor;\n        uint birthYear;\n        uint birthMonth;\n        uint birthDay;\n    }\n\n    enum BloodType {\n        Aplus, Oplus, Bplus, ABplus, Aneg, Oneg, Bneg, ABneg\n    }\n\n    modifier verifyAccountDoesNotExist(){require(accounts[msg.sender].owner == address(0));\n        _;}\n\n    event AccountCreated(address owner, string name);\n    event AccountUpdated(address owner, string name);\n\n    function newAccount(string memory _name, BloodType _bloodType, bool _organDonor, uint _birthYear, uint _birthMonth, uint _birthDay) public verifyAccountDoesNotExist() {\n        emit AccountCreated(msg.sender, _name);\n        accounts[msg.sender] = Account({owner : msg.sender, name : _name, bloodType : _bloodType, organDonor : _organDonor, birthYear : _birthYear, birthMonth : _birthMonth, birthDay : _birthDay});\n    }\n\n    function updateAccount(string memory _name, BloodType _bloodType, bool _organDonor, uint _birthYear, uint _birthMonth, uint _birthDay) public {\n        emit AccountUpdated(msg.sender, _name);\n        accounts[msg.sender] = Account({owner : msg.sender, name : _name, bloodType : _bloodType, organDonor : _organDonor, birthYear : _birthYear, birthMonth : _birthMonth, birthDay : _birthDay});\n    }\n}\n",
  "sourcePath": "/Users/mike/work/mine/healthid/contracts/HealthId.sol",
  "compiler": {
    "name": "solc",
    "version": "0.5.0+commit.1d4f565a.Emscripten.clang"
  },
  "schemaVersion": "3.0.1",
  "updatedAt": "2019-01-24T05:39:31.364Z",
  "devdoc": {
    "methods": {}
  },
  "userdoc": {
    "methods": {}
  }
}