{
  "contractName": "HealthId",
  "abi": [
    {
      "constant": true,
      "inputs": [
        {
          "name": "",
          "type": "address"
        }
      ],
      "name": "accounts",
      "outputs": [
        {
          "name": "owner",
          "type": "address"
        },
        {
          "name": "name",
          "type": "string"
        },
        {
          "name": "bloodType",
          "type": "uint8"
        },
        {
          "name": "organDonor",
          "type": "bool"
        },
        {
          "name": "birthYear",
          "type": "uint256"
        },
        {
          "name": "birthMonth",
          "type": "uint256"
        },
        {
          "name": "birthDay",
          "type": "uint256"
        }
      ],
      "payable": false,
      "stateMutability": "view",
      "type": "function",
      "signature": "0x5e5c06e2"
    },
    {
      "anonymous": false,
      "inputs": [
        {
          "indexed": false,
          "name": "owner",
          "type": "address"
        },
        {
          "indexed": false,
          "name": "name",
          "type": "string"
        }
      ],
      "name": "AccountCreated",
      "type": "event",
      "signature": "0xb3202828e8e55b43ee1a77a1ee6ffbe19f0205767feb21e28cadd26390ff0501"
    },
    {
      "constant": false,
      "inputs": [
        {
          "name": "_name",
          "type": "string"
        },
        {
          "name": "_bloodType",
          "type": "uint8"
        },
        {
          "name": "_organDonor",
          "type": "bool"
        },
        {
          "name": "_birthYear",
          "type": "uint256"
        },
        {
          "name": "_birthMonth",
          "type": "uint256"
        },
        {
          "name": "_birthDay",
          "type": "uint256"
        }
      ],
      "name": "newAccount",
      "outputs": [],
      "payable": false,
      "stateMutability": "nonpayable",
      "type": "function",
      "signature": "0x609071df"
    }
  ],
  "bytecode": "0x608060405234801561001057600080fd5b5061073e806100206000396000f3fe60806040526004361061004c576000357c0100000000000000000000000000000000000000000000000000000000900463ffffffff1680635e5c06e214610051578063609071df14610183575b600080fd5b34801561005d57600080fd5b506100a06004803603602081101561007457600080fd5b81019080803573ffffffffffffffffffffffffffffffffffffffff169060200190929190505050610282565b604051808873ffffffffffffffffffffffffffffffffffffffff1673ffffffffffffffffffffffffffffffffffffffff168152602001806020018760078111156100e657fe5b60ff16815260200186151515158152602001858152602001848152602001838152602001828103825288818151815260200191508051906020019080838360005b83811015610142578082015181840152602081019050610127565b50505050905090810190601f16801561016f5780820380516001836020036101000a031916815260200191505b509850505050505050505060405180910390f35b34801561018f57600080fd5b50610280600480360360c08110156101a657600080fd5b81019080803590602001906401000000008111156101c357600080fd5b8201836020820111156101d557600080fd5b803590602001918460018302840111640100000000831117156101f757600080fd5b91908080601f016020809104026020016040519081016040528093929190818152602001838380828437600081840152601f19601f820116905080830192505050505050509192919290803560ff169060200190929190803515159060200190929190803590602001909291908035906020019092919080359060200190929190505050610396565b005b60006020528060005260406000206000915090508060000160009054906101000a900473ffffffffffffffffffffffffffffffffffffffff1690806001018054600181600116156101000203166002900480601f0160208091040260200160405190810160405280929190818152602001828054600181600116156101000203166002900480156103545780601f1061032957610100808354040283529160200191610354565b820191906000526020600020905b81548152906001019060200180831161033757829003601f168201915b5050505050908060020160009054906101000a900460ff16908060020160019054906101000a900460ff16908060030154908060040154908060050154905087565b600073ffffffffffffffffffffffffffffffffffffffff166000803373ffffffffffffffffffffffffffffffffffffffff1673ffffffffffffffffffffffffffffffffffffffff16815260200190815260200160002060000160009054906101000a900473ffffffffffffffffffffffffffffffffffffffff1673ffffffffffffffffffffffffffffffffffffffff1614151561043257600080fd5b7fb3202828e8e55b43ee1a77a1ee6ffbe19f0205767feb21e28cadd26390ff05013387604051808373ffffffffffffffffffffffffffffffffffffffff1673ffffffffffffffffffffffffffffffffffffffff16815260200180602001828103825283818151815260200191508051906020019080838360005b838110156104c75780820151818401526020810190506104ac565b50505050905090810190601f1680156104f45780820380516001836020036101000a031916815260200191505b50935050505060405180910390a160e0604051908101604052803373ffffffffffffffffffffffffffffffffffffffff16815260200187815260200186600781111561053c57fe5b81526020018515158152602001848152602001838152602001828152506000803373ffffffffffffffffffffffffffffffffffffffff1673ffffffffffffffffffffffffffffffffffffffff16815260200190815260200160002060008201518160000160006101000a81548173ffffffffffffffffffffffffffffffffffffffff021916908373ffffffffffffffffffffffffffffffffffffffff16021790555060208201518160010190805190602001906105fa92919061066d565b5060408201518160020160006101000a81548160ff0219169083600781111561061f57fe5b021790555060608201518160020160016101000a81548160ff0219169083151502179055506080820151816003015560a0820151816004015560c08201518160050155905050505050505050565b828054600181600116156101000203166002900490600052602060002090601f016020900481019282601f106106ae57805160ff19168380011785556106dc565b828001600101855582156106dc579182015b828111156106db5782518255916020019190600101906106c0565b5b5090506106e991906106ed565b5090565b61070f91905b8082111561070b5760008160009055506001016106f3565b5090565b9056fea165627a7a7230582050deeceea741d07f8c80825030affc4d8a093960b8a90dcb2318353b408fad1f0029",
  "source": "pragma solidity ^0.5.0;\n\ncontract HealthId {\n\n    mapping(address => Account) public accounts;\n\n    struct Account {\n        address owner;\n        string name;\n        BloodType bloodType;\n        bool organDonor;\n        uint birthYear;\n        uint birthMonth;\n        uint birthDay;\n    }\n\n    enum BloodType {\n        Aplus, Oplus, Bplus, ABplus, Aneg, Oneg, Bneg, ABneg\n    }\n\n    modifier verifyAccountDoesNotExist(){require(accounts[msg.sender].owner == address(0)); _;}\n\n    event AccountCreated(address owner, string name);\n\n    function newAccount(string memory _name, BloodType _bloodType, bool _organDonor, uint _birthYear, uint _birthMonth, uint _birthDay) public verifyAccountDoesNotExist() {\n        emit AccountCreated(msg.sender, _name);\n        accounts[msg.sender] = Account({owner: msg.sender, name : _name, bloodType : _bloodType, organDonor : _organDonor, birthYear : _birthYear, birthMonth : _birthMonth, birthDay : _birthDay});\n    }\n}\n",
  "sourcePath": "/Users/mike/work/mine/healthid/contracts/HealthId.sol",
  "compiler": {
    "name": "solc",
    "version": "0.5.0+commit.1d4f565a.Emscripten.clang"
  },
  "schemaVersion": "3.0.1",
  "updatedAt": "2019-01-22T06:12:33.581Z",
  "devdoc": {
    "methods": {}
  },
  "userdoc": {
    "methods": {}
  }
}