{
  "contractName": "LibraryDemo",
  "abi": [
    {
      "constant": true,
      "inputs": [
        {
          "name": "x",
          "type": "uint256"
        },
        {
          "name": "y",
          "type": "uint256"
        }
      ],
      "name": "minus",
      "outputs": [
        {
          "name": "",
          "type": "uint256"
        }
      ],
      "payable": false,
      "stateMutability": "pure",
      "type": "function",
      "signature": "0xf4f3bdc1"
    }
  ],
  "bytecode": "0x60e861002f600b82828239805160001a6073146000811461001f57610021565bfe5b5030600052607381538281f3fe73000000000000000000000000000000000000000030146080604052600436106056576000357c0100000000000000000000000000000000000000000000000000000000900463ffffffff168063f4f3bdc114605b575b600080fd5b608e60048036036040811015606f57600080fd5b81019080803590602001909291908035906020019092919050505060a4565b6040518082815260200191505060405180910390f35b600082821115151560b157fe5b81830390509291505056fea165627a7a723058201069dda496e5c879f63a94dba39eb0d9f134d12daf259d987c613e67f70d57a20029",
  "source": "pragma solidity ^0.5.0;\n\n\nlibrary LibraryDemo {\n    function minus(uint x, uint y) public pure returns (uint) {\n        assert(y <= x);\n        return x - y;\n    }\n}",
  "sourcePath": "/Users/mike/work/mine/healthid/contracts/LibraryDemo.sol",
  "compiler": {
    "name": "solc",
    "version": "0.5.0+commit.1d4f565a.Emscripten.clang"
  },
  "schemaVersion": "3.0.1",
  "updatedAt": "2019-01-25T07:38:17.758Z",
  "devdoc": {
    "methods": {}
  },
  "userdoc": {
    "methods": {}
  }
}